:030000000209AE44
:0C09AE00787FE4F6D8FD75811402080083
:10093C0057454C434F4D4520544F0056495349544D
:10094C004F5220434F554E54455200454E54525928
:0A095C003A00494E534944453A0061
:100800007F381209927F101209927F0C1209927F91
:10081000801209927BFF7A09793C7D0A1209127FC6
:10082000C01209927BFF7A0979477D0F12091230B5
:02083000902A0C
:10083200E4F50AF50B120966050BE50B7002050AD1
:10084200C39407E50A940040EC30900E0508AF0807
:0A0852001208ADAD08AF09120870DE
:10085C002091D01209662091CA0509AD08AF091282
:04086C00087080BFD1
:0E0992008FB0C2A0C2A1D2A2120983C2A222BB
:0E09A0008FB0D2A0C2A1D2A2120983C2A2229D
:080912008B108A1189128D136C
:10091A00E4F514E514C395135017AB10AA11A912E4
:10092A008514827583001208E5FF1209A005148058
:01093A00E2DA
:01093B002299
:0E098300E4FFFE0FBF00010EBE0FF8BFA0F58F
:010991002243
:10096600E4FFFEE4FDFC0DBD00010CBC01F8BD90EA
:0C097600F50FBF00010EEF64234E70E788
:010982002252
:0208AD008F0CAE
:1008AF007F011209927BFF7A0979577D061209128F
:1008BF00AF0CEF75F00A84F50DEF75F00A8485F033
:1008CF000E430D30430E307F87120992AF0D120980
:0608DF00A0AF0E0209A00B
:040870008F0C8D0D4F
:100874007FC01209927BFF7A09795E7D0712091203
:10088400C3E50D950CFF75F00A84F50EEF75F00ABB
:100894008485F00F430E30430F307FC8120992AFA6
:0908A4000E1209A0AF0F0209A019
:1008E500BB010CE58229F582E5833AF583E02250C8
:1008F50006E92582F8E622BBFE06E92582F8E22212
:0D090500E58229F582E5833AF583E493222B
:00000001FF
